:0400000078EF00F0A5
:100008005782FACF03F0FBCF04F0E9CF05F0EACF2F
:1000180006F0E1CF07F0E2CF08F0D9CF09F0DACF48
:100028000AF0F3CF0BF0F4CF0CF0F6CF0DF0F7CFCA
:100038000EF0F8CF0FF0F5CF10F057C011F058C000
:1000480012F059C013F05AC014F0000E166E000ECC
:10005800156E16BE03D016501FE11AD0010E1524D6
:10006800016E000E1620026E450E0124D96E000E98
:100078000220DA6E450E1524E16E000E1620E26E9F
:10008800DFCFE7FF154A162A16BEE8D7165004E157
:100098000F0E155CD8A0E2D7AECF54F014C05AF0BA
:1000A80013C059F012C058F011C057F010C0F5FF36
:1000B8000FC0F8FF0EC0F7FF0DC0F6FF0CC0F4FF2D
:1000C8000BC0F3FF0AC0DAFF09C0D9FF08C0E2FF7E
:1000D80007C0E1FF06C0EAFF05C0E9FF04C0FBFF57
:0C00E80003C0FAFF57921100AEEF03F0C6
:10010000004D4F54494F4E2031204E4F542044450E
:100110005445435445440D0A004D4F54494F4E2019
:1001200032204E4F542044455445435445440D0A13
:10013000004D4F54494F4E203120444554454354BF
:1001400045440D0A004D4F54494F4E20322044453E
:100150005445435445440D0A0041435F504F5745B1
:1001600052204F46460D0A0041435F504F574552BB
:10017000204F4E0D0A0048656C6C6F20576F726CF3
:1001800064002D2D2D2D2D2D2D2D0D0A00414443C4
:100190002056414C55453A005354415455533A0D5D
:1001A0000A004C4544204F46460D0A004C45442069
:1001B0004F4E0D0A004C45444F4646004C45444FB7
:0701C0004E00424154000013
:1001C8009290928292889294928693909392939628
:1001D8009384928E928C939A9398D388D38AD38C53
:1001E8009B9C26EC04F017EC04F042EC04F0000EA3
:1001F800566E000E556E8A908A9289908A96000EE5
:10020800186E010E176EF6EC03F0000E1B6E010E51
:100218001A6E07EC04F0000E186E010E176E4EEC05
:1002280004F089808A86000E186E010E176EF6ECAF
:1002380003F089908A96000E186E010E176EF6EC80
:1002480003F0760E186E010E196ED0EC02F0450E12
:10025800266E000E276EC20E286E010E296E4DEC1A
:1002680002F026502710D8B431D017EC04F08D0EC8
:10027800186E010E196ED0EC02F020EE3BF010EE75
:100288002FF0090EDBCFE3FFE806FCE2C7EC03F032
:100298001AC039F01BC03AF02F0E276E000E286ED8
:1002A80039C029F03AC02AF0000E2C6E0A0E2B6EC7
:1002B80032EC03F02F0E186E000E196ED0EC02F01F
:1002C8008A0E186E010E196ED0EC02F081A404D0CB
:1002D8008A865650010903D08A9656500E0B566EE0
:1002E80080AE03D05650020902D056500D0B566E00
:1002F800450E266E000E276EBC0E286E010E296E66
:100308004DEC02F026502710D8B406D017EC04F0B4
:10031800898056500409566E450E266E000E276ECB
:10032800B50E286E010E296E4DEC02F026502710EE
:10033800D8B406D017EC04F0899056500B0B566EC3
:1003480080A203D05650080902D05650070B566EAB
:1003580056505518D8B47BD7980E186E010E196EE2
:10036800D0EC02F056A007D0310E186E010E196EAF
:10037800D0EC02F006D0010E186E010E196ED0EC0A
:1003880002F056A207D0450E186E010E196ED0EC79
:1003980002F006D0190E186E010E196ED0EC02F09C
:1003A80056A407D0AC0E186E010E196ED0EC02F0F0
:1003B80006D0A20E186E010E196ED0EC02F056A6E9
:1003C80007D0680E186E010E196ED0EC02F006D038
:1003D800590E186E010E196ED0EC02F0820E186ECE
:1003E800010E196ED0EC02F056C055F030D720C07F
:1003F80024F021C025F024C017F025C018F022C031
:1004080019F023C01AF009EC03F017C024F018C043
:1004180025F01E4A1F2A24502510D8A4ECD71EC048
:10042800D9FF1FC0DAFF000EDF6E1E06D8A01F0618
:1004380020C017F021C018F022C019F023C01AF00C
:1004480053EC03F01750266E20C017F021C018F0A7
:1004580022C019F023C01AF009EC03F017C020F0ED
:1004680018C021F0090E266402D0070E2626300E89
:1004780026261EC0D9FF1FC0DAFF26C0DFFF1E06D2
:10048800D8A01F0620502110D8A4D2D71E4A1F2A50
:10049800120031D026C01DF027C01EF028C01FF062
:1004A80029C020F028C017F029C018F074EC03F018
:1004B80017C021F018C022F08FEC02F01D501E105A
:1004C800D8A405D026C026F027C027F01200010EB8
:1004D8002624176E000E2720186E28C0F6FF29C0A4
:1004E800F7FF0800F550196E1A6A93EC03F017C06D
:1004F80026F018C027F026502710D8B407D026C0F9
:10050800D9FF27C0DAFFDF50D8A4C4D7000E266E63
:10051800000E276E120033D01DC0D9FF1EC0DAFFAF
:10052800DF50D8B40FD01DC0D9FF1EC0DAFFDF508E
:10053800236E1FC0F6FF20C0F7FF0800F5502318F0
:10054800D8B419D01FC0F6FF20C0F7FF0800F55037
:10055800236E246A231E241E234A242A1DC0D9FF81
:100568001EC0DAFFDF50256E255023241D6E000EB5
:1005780024201E6E12001D4A1E2A1F4A202A210608
:10058800D8A022062128C8E12228D8A4C5D7000E61
:100598001E6E000E1D6E1200000E1D6E000E1C6EEB
:1005A8001AD01C5018241A6E1D5019201B6E1AC020
:1005B800F6FF1BC0F7FFF86A000EF76403D00800C7
:1005C800F55005D0F6CFE1FFF7CFE2FFE75059EC41
:1005D80004F01C4A1D2A1C5018241A6E1D5019209C
:1005E8001B6E1AC0F6FF1BC0F7FFF86A000EF7640F
:1005F80003D00800F55005D0F6CFE1FFF7CFE2FFB2
:10060800E7500009D8B41200CCD7000E1C6E000EBB
:100618001B6E19501A10D8B41CD0010E1D6E04D0D0
:10062800D89019361A361D2A1AAEFAD7D8901B3622
:100638001C361950175C1A501858D8A005D01950F4
:10064800175E1A50185A1B80D8901A3219321D2E6C
:10065800EDD71BC017F01CC018F0120027C02DF0F2
:1006680028C02EF02AAE0CD027C0D9FF28C0DAFF48
:100678002D0EDF6E274A282A296C2A1ED8B02A2A6E
:1006880027C01EF028C01FF029C020F02AC021F082
:100698002BC022F02CC023F0FBEC01F01200195003
:1006A8001A10D8B418D0010E1B6E04D0D890193681
:1006B8001A361B2A1AAEFAD71950175C1A5018584E
:1006C800D8A004D01950175E1A50185AD8901A3268
:1006D80019321B2EF1D717C017F018C018F01200E6
:1006E80017C01BF018C01CF002D01B4A1C2A1BC0E4
:1006F800F6FF1CC0F7FF0800F5500009D8A4F5D78D
:1007080017C019F018C01AF0191E1A1E194A1A2A09
:100718001B501924176E1C501A20186E120017C08F
:10072800D9FF18C0DAFF1950DE18D8A405D017C0B1
:1007380017F018C018F0120017C0D9FF18C0DAFF58
:10074800174A182ADF50D8A4EAD7000E176E000EF1
:10075800186E12006A0EF66E080EF76E000EF86E2E
:1007680000EE3BF010EE1AF00900F5CFEEFFE55071
:10077800E150FAE1566A556A57905792000EF86EA2
:100788000001E4EF00F0C280000E186E010E176E33
:10079800F6EC03F0C282C2B2FED7C4501D6E1C6ACA
:1007A800C3501C241E6E000E1D201F6EC2901EC05A
:1007B8001AF01FC01BF0120017C01DF018C01EF061
:1007C80008D01DC0D9FF1EC0DAFF19C0DFFF1D4ABF
:1007D8001E2A1B06D8A01C061B28F3E11C28D8B427
:1007E8001200EFD707D0030E196E980EE82EFED729
:1007F800192EFCD71706D8A018061728F4E11828D0
:10080800D8B41200F0D706D0030E186EE80E176E93
:10081800F6EC03F01A06D8A01B061A28F5E11B28E7
:10082800D8B41200F1D7450E176E000E186E000EE0
:100838001A6E000E196E000E1C6E100E1B6EE0EC88
:1008480003F012009D8AF28CF28EAB8EAB9CAB88C3
:10085800AC9CAC98AC94AC8AB896B8900C0EAF6EC1
:1008680012002D2D2D2D2D2D2D2D2D00313233340F
:10087800353637383930313233343536C284C2866A
:10088800C198C196C08EC08AC098C098C094C092C2
:10089800C090120001D000D01706D8A0180617285B
:1008A800FAE11828D8B41200F6D7176EACA2FED712
:0608B80017C0ADFF1200A5
:020000040020DA
:08000000FFFFFFFFFFFFFFFF00
:020000040030CA
:0E000000FF081F1E0E0181FF03C003E0034036
:00000001FF
