:020000040000FA
:040000003CEF00F0E1
:100008004482D9CF01F0DACF02F0F3CF03F0F4CF76
:1000180004F089809EAA13EF00F015EF00F031EF8D
:1000280000F03150010D320EF324D96E000EF42089
:10003800DA6EAECFDFFF3128316E100E3118D8A43A
:1000480028EF00F02AEF00F02EEF00F03104316EB7
:100058002EEF00F09E9A31EF00F0899004C0F4FF73
:1000680003C0F3FF02C0DAFF01C0D9FF44921100B8
:04007800ABEF06F0F4
:100100000048656C6C6F20576F726C6433310A0065
:1001100048656C6C6F20576F726C64310A004865DB
:100120006C6C6F20576F726C64320A0045585452E1
:10013000415F4F46460045585452415F4F4E004183
:100140004C415F4F464600414C415F4F4E00535477
:1001500041545553007C4F46467C00424545500073
:100160007C4F4E7C0041437C0044437C000091EC7A
:1001700006F0E2EC06F0F1EC06F08A88000E066E5E
:10018000320E056E5BEC06F08A9889808A968A8A20
:10019000000E096E010E086E77EC06F089908A86D3
:1001A0008A9A000E096E010E086E77EC06F08980BF
:1001B0008A96000E096E010E086E77EC06F08990A3
:1001C0008A86000E096E010E086E77EC06F08990A3
:1001D0008A96100E066E010E076E98EC04F01E0E45
:1001E000066E010E076E98EC04F0010E066E010E0D
:1001F000076E98EC04F0FDEF00F0320E146E000E66
:10020000156E4E0E166E010E176E83EC03F0145031
:100210001510D8B40EEF01F010EF01F016EF01F059
:10022000C2EC06F05CEC02F0B3EF01F0320E146E9B
:10023000000E156E470E166E010E176E83EC03F05E
:1002400014501510D8B427EF01F029EF01F030EF6A
:1002500001F0C2EC06F030500809306EB3EF01F047
:10026000320E146E000E156E3F0E166E010E176ED6
:1002700083EC03F014501510D8B441EF01F043EFB4
:1002800001F050EF01F0C2EC06F03050EF0B306E91
:100290003050F70B306E3050FD0B306EB3EF01F085
:1002A000320E146E000E156E5B0E166E010E176E7A
:1002B00083EC03F014501510D8B461EF01F063EF34
:1002C00001F075EF01F0C2EC06F08A88000E066EB0
:1002D000FA0E056E5BEC06F08A98000E066EFA0EBA
:1002E000056E5BEC06F0B3EF01F0320E146E000EFB
:1002F000156E360E166E010E176E83EC03F0145059
:100300001510D8B486EF01F088EF01F08FEF01F0FF
:10031000C2EC06F030500109306EB3EF01F0320E3E
:10032000146E000E156E2C0E166E010E176E83ECF9
:1003300003F014501510D8B4A0EF01F0A2EF01F0B3
:10034000B3EF01F0C2EC06F03050FE0B306EB3EFAD
:1003500001F0B3EF01F0B3EF01F0B3EF01F0B3EF51
:1003600001F0B3EF01F080B2B8EF01F0BCEF01F0A3
:100370002F6A2F2ABDEF01F02F6A000E42B0010E46
:100380002F18D8B4C6EF01F0C8EF01F0EAEF01F082
:1003900080B2CDEF01F0D0EF01F04280D1EF01F05B
:1003A000429080A2D6EF01F0D8EF01F0E0EF01F02B
:1003B00030500409306E30500109306EEAEF01F020
:1003C0003050FB0B306E3050FE0B306EEAEF01F018
:1003D000EAEF01F0000E81B4010E80BE010EE8B01C
:1003E000F4EF01F0F8EF01F02F6A2F2AF9EF01F096
:1003F0002F6A2F50D8B4FFEF01F001EF02F016EF93
:1004000002F08A8630A607EF02F009EF02F017EF3C
:1004100002F030501009306E30500209306E30500A
:10042000FE0B306E17EF02F017EF02F08A9630A243
:100430001CEF02F01EEF02F021EF02F08A8822EF9B
:1004400002F08A9830A027EF02F029EF02F02CEF9B
:1004500002F08A8A2FEF02F08A9A2FEF02F04350BF
:100460003018D8B436EF02F038EF02F0FDEF00F0AC
:1004700043C02FF0040E2F163050040B2F18D8B4A1
:1004800044EF02F046EF02F050EF02F08A88000ECF
:10049000066E320E056E5BEC06F08A9850EF02F0A5
:1004A00030C043F05CEC02F0FDEF00F0FDEF00F037
:1004B000FDEF00F03CEF00F017EC06F008C02BF069
:1004C00009C02CF02BC005F02CC006F0076A086AA2
:1004D000880E096E130E0A6E000E0B6E000E0C6E67
:1004E0005DEC05F005C027F006C028F007C029F034
:1004F00008C02AF027C005F028C006F029C007F080
:100500002AC008F0FF0E096E030E0A6E000E0B6E75
:10051000000E0C6E3CEC04F005C02DF006C02EF071
:100520001D0E156E000E166E2DC017F02EC018F0A1
:10053000000E1A6E0A0E196EEDEC05F01D0E066E19
:10054000000E076E98EC04F030A8A9EF02F0ABEFB4
:1005500002F0B3EF02F0600E066E010E076E98EC2B
:1005600004F0BBEF02F0550E066E010E076E98EC1C
:1005700004F0BBEF02F030A6C0EF02F0C2EF02F0D1
:10058000CAEF02F0610E066E010E076E98EC04F0E1
:10059000D2EF02F0560E066E010E076E98EC04F0D4
:1005A000D2EF02F030A4D7EF02F0D9EF02F0E1EF82
:1005B00002F0650E066E010E076E98EC04F0E9EF8E
:1005C00002F0690E066E010E076E98EC04F0E9EF7A
:1005D00002F030A2EEEF02F0F0EF02F0F8EF02F0DE
:1005E000610E066E010E076E98EC04F000EF03F04A
:1005F000560E066E010E076E98EC04F000EF03F045
:1006000030A005EF03F007EF03F00FEF03F04B0E00
:10061000066E010E076E98EC04F017EF03F0430E20
:10062000066E010E076E98EC04F017EF03F012004F
:100630000EC012F00FC013F01EEF03F012C005F051
:1006400013C006F010C007F011C008F0DDEC04F094
:1006500005C012F006C013F00C4A0D2A12501310F8
:10066000D8A435EF03F037EF03F01EEF03F039EFB6
:1006700003F00CC0D9FF0DC0DAFF000EDF6E0C06D0
:10068000D8A00D0644EF03F00EC005F00FC006F031
:1006900010C007F011C008F021EC05F00550146EF1
:1006A0000EC005F00FC006F010C007F011C008F032
:1006B000DDEC04F005C00EF006C00FF0090E146466
:1006C00064EF03F066EF03F068EF03F0070E142603
:1006D000300E14260CC0D9FF0DC0DAFF14C0DFFFA6
:1006E0000C06D8A00D060E500F10D8A47AEF03F018
:1006F0007CEF03F044EF03F07EEF03F00C4A0D2A89
:1007000082EF03F01200C0EF03F014C00BF015C02D
:100710000CF016C00DF017C00EF016C005F017C093
:1007200006F0C2EC05F005C00FF006C010F0E0ECDA
:1007300003F00B500C10D8A4A0EF03F0A2EF03F0CD
:10074000AAEF03F014C014F015C015F0DFEF03F0AA
:10075000DFEF03F0010E1424056E000E1520066E67
:1007600016C0F6FF17C0F7FF0800F550076E086ABD
:1007700096EC05F005C014F006C015F0C0EF03F0CC
:1007800014501510D8B4C7EF03F0C9EF03F0D9EF38
:1007900003F014C0D9FF15C0DAFFDF50D8A4D3EF9F
:1007A00003F0D5EF03F085EF03F0D9EF03F0D9EFB5
:1007B00003F0000E146E000E156EDFEF03F0120052
:1007C00026EF04F00BC0D9FF0CC0DAFFDF50D8B41D
:1007D000ECEF03F0EEEF03F004EF04F00BC0D9FFF1
:1007E0000CC0DAFFDF50116E0DC0F6FF0EC0F7FF30
:1007F0000800F5501118D8B400EF04F002EF04F02F
:1008000020EF04F004EF04F00DC0F6FF0EC0F7FF78
:100810000800F550116E126A111E121E114A122A9A
:100820000BC0D9FF0CC0DAFFDF50136E1350112438
:100830000B6E000E12200C6E3BEF04F03BEF04F049
:100840000B4A0C2A0D4A0E2A26EF04F00F06D8A0F8
:1008500010060F2806E11028D8A431EF04F033EF7A
:1008600004F0E2EF03F035EF04F0000E0C6E000E22
:100870000B6E3BEF04F01200000E0D6E000E0E6EBC
:10088000000E0F6E000E106E09500A100B100C10A7
:10089000D8B44DEF04F04FEF04F08FEF04F0010EE9
:1008A000116E5BEF04F0D89009360A360B360C3621
:1008B000112A5BEF04F00CAE60EF04F062EF04F07D
:1008C00053EF04F066EF04F066EF04F0D8900D36B5
:1008D0000E360F3610360950055C0A5006580B507C
:1008E00007580C500858D8A078EF04F07AEF04F0BD
:1008F00085EF04F00950055E0A50065A0B50075A5E
:100900000C50085A0D8085EF04F0D8900C320B3251
:100910000A320932112E66EF04F08FEF04F00DC099
:1009200005F00EC006F00FC007F010C008F012006E
:10093000000E0C6E000E0B6EBCEF04F00B50062484
:10094000086E0C500720096E08C0F6FF09C0F7FFBB
:10095000F86A000EF76403D00800F55005D0F6CF12
:10096000D9FFF7CFDAFFDF500A6E0A50D3EC06F05A
:100970000B4A0C2ABCEF04F00B500624086E0C50F6
:100980000720096E08C0F6FF09C0F7FFF86A000EDD
:10099000F76403D00800F55005D0F6CFD9FFF7CFA4
:1009A000DAFFDF500009D8A4D8EF04F0DAEF04F042
:1009B0009EEF04F0DCEF04F01200000E0A6E000E51
:1009C000096E07500810D8B4E8EF04F0EAEF04F01D
:1009D0001CEF05F0010E0B6EF4EF04F0D890073613
:1009E00008360B2AF4EF04F008AEF9EF04F0FBEF41
:1009F00004F0EEEF04F0FFEF04F0FFEF04F0D89006
:100A000009360A360750055C08500658D8A00BEF87
:100A100005F00DEF05F014EF05F00750055E0850E6
:100A2000065A098014EF05F0D890083207320B2ED1
:100A3000FFEF04F01CEF05F009C005F00AC006F056
:100A4000120007500810D8B428EF05F02AEF05F07F
:100A500058EF05F0010E096E34EF05F0D890073617
:100A60000836092A34EF05F008AE39EF05F03BEF00
:100A700005F02EEF05F03FEF05F03FEF05F00750D2
:100A8000055C08500658D8A048EF05F04AEF05F07D
:100A900050EF05F00750055E0850065A50EF05F07C
:100AA000D89008320732092E3FEF05F058EF05F0D5
:100AB00005C005F006C006F01200000E0D6E000E17
:100AC0000E6E000E0F6E000E106E67EF05F005A0A3
:100AD0006CEF05F06EEF05F078EF05F009500D268C
:100AE0000A500E220B500F220C50102278EF05F006
:100AF000D89009360A360B360C36D89008320732B1
:100B0000063205320550061007100810D8A48BEFE6
:100B100005F08DEF05F067EF05F00DC005F00EC094
:100B200006F00FC007F010C008F0120005C0D9FF92
:100B300006C0DAFF0750DE18D8A4A1EF05F0A3EF36
:100B400005F0ABEF05F005C005F006C006F0C1EFFB
:100B500005F0C1EF05F005C0D9FF06C0DAFF054A70
:100B6000062ADF50D8A4B7EF05F0B9EF05F096EFED
:100B700005F0BBEF05F0000E056E000E066EC1EF2E
:100B800005F0120005C009F006C00AF0CCEF05F030
:100B9000094A0A2ACCEF05F009C0F6FF0AC0F7FFA0
:100BA0000800F5500009D8A4D8EF05F0DAEF05F0F9
:100BB000C8EF05F0DCEF05F005C007F006C008F04F
:100BC000071E081E074A082A09500724056E0A5006
:100BD0000820066EECEF05F0120015C01BF016C0E1
:100BE0001CF018BEF8EF05F0F6EF05F006EF06F082
:100BF00015C0D9FF16C0DAFF2D0EDF6E154A162A72
:100C0000176C181ED8B0182A06EF06F015C00CF0A5
:100C100016C00DF017C00EF018C00FF019C010F07C
:100C20001AC011F018EC03F016EF06F01200C280A3
:100C3000000E066E0A0E056E5BEC06F0C28221EF16
:100C400006F0C2B226EF06F028EF06F021EF06F01C
:100C50002AEF06F0C4500B6E0A6AC3500A240C6EC9
:100C6000000E0B200D6EC2900CC008F00DC009F0F4
:100C70003AEF06F0120005C00BF006C00CF04BEF87
:100C800006F00BC0D9FF0CC0DAFF07C0DFFF0B4A2C
:100C90000C2A4BEF06F00906D8A00A06092806E13F
:100CA0000A28D8A456EF06F058EF06F041EF06F0F8
:100CB0005AEF06F0120067EF06F00B0E076E620E99
:100CC000E82EFED7072EFCD700D067EF06F005060A
:100CD000D8A00606052806E10628D8A472EF06F07B
:100CE00074EF06F05DEF06F076EF06F0120081EF8C
:100CF00006F0030E066EE80E056E5BEC06F081EF63
:100D000006F00806D8A00906082806E10928D8A494
:100D10008CEF06F08EEF06F079EF06F090EF06F01C
:100D2000120092909282928492869288928C928EF5
:100D300093909392938493969398939AC196C18437
:100D4000C182C180D388D38AD38C9B8C8A908A92AB
:100D50008A988A9A1200FA0EF66E0D0EF76E000E41
:100D6000F86E0900F5CF43F0426A00EE30F0120E43
:100D7000EE6AE806FDE144904492000EF86E000130
:100D8000B7EF00F0320E056E000E066E000E086E14
:100D90002D0E076E000E0A6E100E096E3BEC06F06B
:100DA000000E316E1200056ED6EF06F0ACA2DBEF3E
:100DB00006F0DDEF06F0D6EF06F0DFEF06F005C037
:100DC000ADFF12009D8AF28CF28EAB8EAB9CAB888D
:100DD000AC9CAC98AC94AC8AB896B890330EAF6E1D
:100DE0001200C284C286C198C196C08EC08AC098C3
:0B0DF000C098C094C092C09012008018
:020000040020DA
:08000000FFFFFFFFFFFFFFFF00
:020000040030CA
:0E000000FF081F1E0E0981FF03C003E003402E
:00000001FF
