:020000040000FA
:040000003AEF00F0E3
:100008003D82D9CF01F0DACF02F0F3CF03F0F4CF7D
:1000180004F09EAA12EF00F014EF00F030EF00F0A9
:100028002C50010D2D0EF324D96E000EF420DA6E3B
:10003800AECFDFFF2C282C6E100E2C18D8A427EF7B
:1000480000F029EF00F02DEF00F02C042C6E2DEFBE
:1000580000F09E9A30EF00F004C0F4FF03C0F3FFF5
:1000680002C0DAFF01C0D9FF3D92110059EF05F037
:10010000004D4F54494F4E2031204E4F204D4F56F9
:10011000454D454E540A004D4F54494F4E20322014
:100120006E6F206D6F76656D656E740A004D4F546D
:10013000494F4E20312044455445435445440A001C
:100140004D4F54494F4E2032204445544543544569
:10015000440A004241542D2D2D2D2D2D2D2D2D2DB8
:100160002D2D2D0048656C6C6F20576F726C640AE2
:10017000004144432056414C55453A0041432050EC
:100180004F5745520A00444320504F5745520A00EA
:100190004C4544204F46460A004C4544204F4E0AE9
:0F01A000004C45444F4646004C45444F4E00002E
:1001B00092909282928492869288928C928E939060
:1001C0009392938493969398939AC196C184C18293
:1001D000C180D388D38AD38C9B8C4AEC05F02AEC5F
:1001E00005F066EC05F08A908A9289908A96000E56
:1001F000066E010E056EDCEC04F0000E096E010EB9
:10020000086EF8EC04F0000E066E010E056E12EC9E
:1002100005F089808A86000E066E010E056EDCEC04
:1002200004F089908A96000E066E010E056EDCECD5
:1002300004F0640E066E010E076E98EC03F021EFD9
:1002400001F02D0E146E000E156E530E166E010E7B
:10025000176E9BEC02F014501510D8B432EF01F079
:1002600034EF01F05EEF01F02AEC05F0710E066E3E
:10027000010E076E98EC03F098EC04F008C027F02C
:1002800009C028F01D0E156E000E166E27C017F05F
:1002900028C018F0000E1A6E0A0E196E6EEC04F0EB
:1002A0001D0E066E000E076E98EC03F03E0E066EF5
:1002B000010E076E98EC03F09EEF01F02D0E146E08
:1002C000000E156EA80E166E010E176E9BEC02F056
:1002D00014501510D8B46FEF01F071EF01F07CEFFE
:1002E00001F02AEC05F08980990E066E010E076E6A
:1002F00098EC03F09EEF01F02D0E146E000E156EBB
:10030000A10E166E010E176E9BEC02F01450151024
:10031000D8B48DEF01F08FEF01F09EEF01F02AECE1
:1003200005F08990900E066E010E076E98EC03F0B2
:100330009EEF01F09EEF01F09EEF01F081B4A3EF7C
:1003400001F0A6EF01F0010EA7EF01F0000E2B184F
:10035000D8B4ADEF01F0AFEF01F0CEEF01F0000E39
:1003600081B4010E2B6E81A4B8EF01F0BAEF01F059
:10037000C3EF01F02D0E066E010E076E98EC03F030
:100380008A86CEEF01F0010E066E010E076E98EC24
:1003900003F08A96CEEF01F0CEEF01F080BED3EFEE
:1003A00001F0D6EF01F0010ED7EF01F0000E2A1890
:1003B000D8B4DDEF01F0DFEF01F0FCEF01F0000E4B
:1003C00080BE010E2A6E80AEE8EF01F0EAEF01F088
:1003D000F2EF01F0400E066E010E076E98EC03F08E
:1003E000FCEF01F0170E066E010E076E98EC03F09D
:1003F000FCEF01F0FCEF01F080B201EF02F004EF3E
:1004000002F0010E05EF02F0000E2918D8B40BEF30
:1004100002F00DEF02F021EF01F0000E80B2010EAC
:10042000296E80A216EF02F018EF02F020EF02F022
:100430007C0E066E010E076E98EC03F021EF01F0C2
:10044000860E066E010E076E98EC03F021EF01F0A8
:1004500021EF01F021EF01F021EF01F03AEF00F080
:100460000EC012F00FC013F036EF02F012C005F00C
:1004700013C006F010C007F011C008F054EC03F0F0
:1004800005C012F006C013F00C4A0D2A12501310CA
:10049000D8A44DEF02F04FEF02F036EF02F051EF2B
:1004A00002F00CC0D9FF0DC0DAFF000EDF6E0C06A3
:1004B000D8A00D065CEF02F00EC005F00FC006F0EC
:1004C00010C007F011C008F0DBEC03F00550146E0B
:1004D0000EC005F00FC006F010C007F011C008F004
:1004E00054EC03F005C00EF006C00FF0090E1464C2
:1004F0007CEF02F07EEF02F080EF02F0070E142690
:10050000300E14260CC0D9FF0DC0DAFF14C0DFFF77
:100510000C06D8A00D060E500F10D8A492EF02F0D2
:1005200094EF02F05CEF02F096EF02F00C4A0D2A15
:100530009AEF02F01200D8EF02F014C00BF015C0D1
:100540000CF016C00DF017C00EF016C005F017C065
:1005500006F043EC04F005C00FF006C010F0F8EC14
:1005600002F00B500C10D8A4B8EF02F0BAEF02F072
:10057000C2EF02F014C014F015C015F0F7EF02F04E
:10058000F7EF02F0010E1424056E000E1520066E22
:1005900016C0F6FF17C0F7FF0800F550076E086A8F
:1005A00017EC04F005C014F006C015F0D8EF02F007
:1005B00014501510D8B4DFEF02F0E1EF02F0F1EFC4
:1005C00002F014C0D9FF15C0DAFFDF50D8A4EBEF5A
:1005D00002F0EDEF02F09DEF02F0F1EF02F0F1EF2B
:1005E00002F0000E146E000E156EF7EF02F012000E
:1005F0003EEF03F00BC0D9FF0CC0DAFFDF50D8B4D8
:1006000004EF03F006EF03F01CEF03F00BC0D9FF7B
:100610000CC0DAFFDF50116E0DC0F6FF0EC0F7FF01
:100620000800F5501118D8B418EF03F01AEF03F0D2
:1006300038EF03F01CEF03F00DC0F6FF0EC0F7FF1C
:100640000800F550116E126A111E121E114A122A6C
:100650000BC0D9FF0CC0DAFFDF50136E135011240A
:100660000B6E000E12200C6E53EF03F053EF03F0ED
:100670000B4A0C2A0D4A0E2A3EEF03F00F06D8A0B3
:1006800010060F2806E11028D8A449EF03F04BEF1D
:1006900003F0FAEF02F04DEF03F0000E0C6E000EC7
:1006A0000B6E53EF03F01200000E0A6E000E096E7F
:1006B00007500810D8B45FEF03F061EF03F093EF39
:1006C00003F0010E0B6E6BEF03F0D890073608367F
:1006D0000B2A6BEF03F008AE70EF03F072EF03F03C
:1006E00065EF03F076EF03F076EF03F0D89009366C
:1006F0000A360750055C08500658D8A082EF03F070
:1007000084EF03F08BEF03F00750055E0850065AA4
:1007100009808BEF03F0D890083207320B2E76EF6A
:1007200003F093EF03F009C005F00AC006F01200D1
:10073000000E0B6E000E0A6EBAEF03F00A5006248C
:10074000086E0B500720096E08C0F6FF09C0F7FFBE
:10075000F86A000EF76403D00800F55005D0F6CF14
:10076000D9FFF7CFDAFFDF503BEC05F00A4A0B2A3E
:10077000BAEF03F00A500624086E0B500720096EEA
:1007800008C0F6FF09C0F7FFF86A000EF76403D04F
:100790000800F55005D0F6CFD9FFF7CFDAFFDF50CC
:1007A0000009D8A4D6EF03F0D8EF03F09EEF03F0D2
:1007B000DAEF03F0120007500810D8B4E2EF03F0AC
:1007C000E4EF03F012EF04F0010E096EEEEF03F018
:1007D000D89007360836092AEEEF03F008AEF3EF9B
:1007E00003F0F5EF03F0E8EF03F0F9EF03F0F9EFB2
:1007F00003F00750055C08500658D8A002EF04F03B
:1008000004EF04F00AEF04F00750055E0850065AA2
:100810000AEF04F0D89008320732092EF9EF03F0FE
:1008200012EF04F005C005F006C006F0120005C086
:10083000D9FF06C0DAFF0750DE18D8A422EF04F073
:1008400024EF04F02CEF04F005C005F006C006F01C
:1008500042EF04F042EF04F005C0D9FF06C0DAFF12
:10086000054A062ADF50D8A438EF04F03AEF04F026
:1008700017EF04F03CEF04F0000E056E000E066E5C
:1008800042EF04F0120005C009F006C00AF04DEF77
:1008900004F0094A0A2A4DEF04F009C0F6FF0AC025
:1008A000F7FF0800F5500009D8A459EF04F05BEFFA
:1008B00004F049EF04F05DEF04F005C007F006C056
:1008C00008F0071E081E074A082A09500724056E6B
:1008D0000A500820066E6DEF04F0120015C01BF0E0
:1008E00016C01CF018BE79EF04F077EF04F087EF24
:1008F00004F015C0D9FF16C0DAFF2D0EDF6E154AC1
:10090000162A176C181ED8B0182A87EF04F015C0E5
:100910000CF016C00DF017C00EF018C00FF019C083
:1009200010F01AC011F030EC02F097EF04F0120052
:10093000C280000E066E010E056EDCEC04F0C28271
:10094000A2EF04F0C2B2A7EF04F0A9EF04F0A2EF07
:1009500004F0ABEF04F0C4500B6E0A6AC3500A24D3
:100960000C6E000E0B200D6EC2900CC008F00DC076
:1009700009F0BBEF04F0120005C00BF006C00CF04C
:10098000CCEF04F00BC0D9FF0CC0DAFF07C0DFFFCB
:100990000B4A0C2ACCEF04F00906D8A00A06092855
:1009A00006E10A28D8A4D7EF04F0D9EF04F0C2EF8B
:1009B00004F0DBEF04F01200E8EF04F00B0E076E1A
:1009C000620EE82EFED7072EFCD700D0E8EF04F029
:1009D0000506D8A00606052806E10628D8A4F3EFE8
:1009E00004F0F5EF04F0DEEF04F0F7EF04F012008E
:1009F00002EF05F0030E066EE80E056EDCEC04F067
:100A000002EF05F00806D8A00906082806E1092823
:100A1000D8A40DEF05F00FEF05F0FAEF04F011EF99
:100A200005F012001AEF05F000D000D000D000D081
:100A30001AEF05F00506D8A00606052806E10628E7
:100A4000D8A425EF05F027EF05F014EF05F029EF06
:100A500005F012002D0E056E000E066E000E086EDB
:100A60002D0E076E000E0A6E100E096EBCEC04F01F
:100A7000000E2C6E1200056E3EEF05F0ACA243EFA7
:100A800005F045EF05F03EEF05F047EF05F005C036
:100A9000ADFF12009D8AF28CF28EAB8EAB9CAB88C0
:100AA000AC9CAC98AC94AC8AB896B890330EAF6E50
:100AB000120000EE29F0140EEE6AE806FDE13D900A
:100AC0003D92000EF86E0001D8EF00F0C284C2869D
:100AD000C198C196C08EC08AC098C098C094C09278
:040AE000C0901200B0
:020000040020DA
:08000000FFFFFFFFFFFFFFFF00
:020000040030CA
:0E000000FF081F1E0E0981FF03C003E003402E
:00000001FF
