:020000040000FA
:040000003CEF00F0E1
:100008004B82D9CF01F0DACF02F0F3CF03F0F4CF6F
:1000180004F08A869EAA13EF00F015EF00F032EF85
:1000280000F04150010D420EF324D96E000EF42069
:10003800DA6EAECFDFFF402A4128416E080E411824
:10004800D8A429EF00F02BEF00F02FEF00F04104C7
:10005800416E2FEF00F09E9A32EF00F004C0F4FFDB
:1000680003C0F3FF02C0DAFF01C0D9FF4B921100B1
:04007800B0EF08F0ED
:100100000048656C6C6F20576F726C6433310A0065
:1001100048656C6C6F20576F726C64310A004865DB
:100120006C6C6F20576F726C64320A00414C4C5FEC
:10013000534952454E5F4F4E00305F585452415F15
:100140003000315F585452415F3000305F534952A4
:100150004E5F3000315F5349524E5F3000305F4197
:100160004C41525F3000315F414C41525F300030B2
:100170005F585452415F3100315F585452415F31F2
:1001800000305F5349524E5F3100315F5349524E48
:100190005F3100305F414C41525F3100315F414C73
:1001A00041525F3100305F42454550455200315F5A
:1001B00042454550455200305F5354415455530019
:1001C000315F535441545553007C4F46467C007C6C
:1001D0004F4E7C004F46460041437C0044437C0028
:0101E000001E
:1001E2007BEC08F0E9EC08F0F8EC08F08A88000EE5
:1001F200066E320E056E5FEC08F08A988A86899048
:100202008A8A000E096E010E086E96EC08F08A9634
:1002120089808A9A000E096E010E086E96EC08F02B
:100222008A868990000E096E010E086E96EC08F01F
:100232008A968980000E096E010E086E96EC08F00F
:100242008A968990100E066E010E076E9CEC06F0DF
:100252001E0E066E010E076E9CEC06F0010E066E77
:10026200010E076E9CEC06F0000E326E000E316E2F
:1002720032BE45EF01F0325009E1640E315CD8A084
:1002820045EF01F047EF01F04BEF01F063EF01F0B2
:1002920063EF01F0AECF33F0C6EC08F0314A322AF8
:1002A20032BE5DEF01F0325009E1640E315CD8A03C
:1002B2005DEF01F05FEF01F04BEF01F063EF01F052
:1002C20063EF01F0420E146E000E156EC00E166E34
:1002D200010E176E87EC05F014501510D8A474EFB8
:1002E20001F077EF01F0010E78EF01F0000E2F6EB2
:1002F200420E146E000E156EB70E166E010E176EBC
:1003020087EC05F014501510D8A48AEF01F08DEF98
:1003120001F0010E8EEF01F0000E2F10E8A094EF15
:1003220001F096EF01F09CEF01F0C6EC08F05BECF7
:1003320004F04BEF03F0420E146E000E156E9C0E8D
:10034200166E010E176E87EC05F014501510D8A426
:10035200ADEF01F0B0EF01F0010EB1EF01F0000ED0
:100362002F6E420E146E000E156E930E166E010E57
:10037200176E87EC05F014501510D8A4C3EF01F0E6
:10038200C6EF01F0010EC7EF01F0000E2F10E8A03A
:10039200CDEF01F0CFEF01F0D5EF01F0C6EC08F0A0
:1003A200010E3E6E4BEF03F0420E146E000E156E00
:1003B200660E166E010E176E87EC05F014501510BE
:1003C200D8A4E6EF01F0E9EF01F0010EEAEF01F047
:1003D200000E2F6E420E146E000E156E5D0E166E1E
:1003E200010E176E87EC05F014501510D8A4FCEF1F
:1003F20001F0FFEF01F0010E00EF02F0000E2F10EE
:10040200E8A006EF02F008EF02F014EF02F0C6ECEB
:1004120008F0000E3E6E000E3F6E000E3C6E000EA7
:10042200356E4BEF03F0420E146E000E156E540E35
:10043200166E010E176E87EC05F014501510D8A435
:1004420025EF02F028EF02F0010E29EF02F0000E74
:100452002F6E420E146E000E156E4B0E166E010EAE
:10046200176E87EC05F014501510D8A43BEF02F07C
:100472003EEF02F0010E3FEF02F0000E2F10E8A057
:1004820045EF02F047EF02F04DEF02F0C6EC08F044
:10049200000E3C6E4BEF03F0420E146E000E156E12
:1004A2008A0E166E010E176E87EC05F014501510A9
:1004B200D8A45EEF02F061EF02F0010E62EF02F0EB
:1004C200000E2F6E420E146E000E156E810E166E09
:1004D200010E176E87EC05F014501510D8A474EFB6
:1004E20002F077EF02F0010E78EF02F0000E2F100B
:1004F200E8A07EEF02F080EF02F086EF02F0C6EC99
:1005020008F0010E3C6E4BEF03F0420E146E000E2B
:10051200156EAE0E166E010E176E87EC05F01450B6
:100522001510D8A497EF02F09AEF02F0010E9BEF9C
:1005320002F0000E2F6E420E146E000E156EA50E06
:10054200166E010E176E87EC05F014501510D8A424
:10055200ADEF02F0B0EF02F0010EB1EF02F0000ECB
:100562002F10E8A0B7EF02F0B9EF02F0CBEF02F0E4
:10057200C6EC08F08A88000E066EFA0E056E5FEC75
:1005820008F08A98000E066EFA0E056E5FEC08F00F
:100592004BEF03F0420E146E000E156E780E166EBF
:1005A200010E176E87EC05F014501510D8A4DCEF7D
:1005B20002F0DFEF02F0010EE0EF02F0000E2F6E0C
:1005C200420E146E000E156E6F0E166E010E176E31
:1005D20087EC05F014501510D8A4F2EF02F0F5EFF5
:1005E20002F0010EF6EF02F0000E2F10E8A0FCEF71
:1005F20002F0FEEF02F004EF03F0C6EC08F0010E89
:100602003B6E4BEF03F0420E146E000E156E420E5F
:10061200166E010E176E87EC05F014501510D8A453
:1006220015EF03F018EF03F0010E19EF03F0000EBF
:100632002F6E420E146E000E156E390E166E010EDE
:10064200176E87EC05F014501510D8A42BEF03F0A9
:100652002EEF03F0010E2FEF03F0000E2F10E8A093
:1006620035EF03F037EF03F04BEF03F0C6EC08F081
:10067200000E3B6E4BEF03F04BEF03F04BEF03F03A
:100682004BEF03F04BEF03F04BEF03F04BEF03F0B4
:100692004BEF03F080A250EF03F052EF03F056EF5E
:1006A20003F0010E3D6E5AEF03F0000E3D6E5AEF5D
:1006B20003F0000E81B4010E80BE010EE8B064EFBB
:1006C20003F067EF03F0010E68EF03F0000E2F6EE8
:1006D200306A3F04D8B470EF03F073EF03F0010EF9
:1006E20074EF03F0000E2F12000E30122F50301054
:1006F200D8B47EEF03F080EF03F0E6EF03F08980D9
:100702003E04D8A487EF03F089EF03F0E9EF03F08A
:10071200000E3B6E3F04D8A491EF03F093EF03F079
:10072200C1EF03F0F2A498EF03F09AEF03F0E9EFC0
:1007320003F04A503418D8A4A1EF03F0A3EF03F05A
:10074200B9EF03F0010E3C6E3550D8A4ABEF03F0C5
:10075200ADEF03F0E9EF03F0010E356E2C0E066EDD
:10076200010E076E9CEC06F0E9EF03F0E9EF03F0EF
:10077200342AF294E9EF03F0E9EF03F0E9EF03F032
:10078200000E346E010E3F6ED59E000ED66E000E28
:10079200D76ED59CD59AD596D580D582D584D58E5F
:1007A200F2948A88000E066E640E056E5FEC08F005
:1007B2008A98000E066E640E056E5FEC08F0E9EF93
:1007C20003F0E9EF03F0E9EF03F08990E9EF03F0BA
:1007D2003C04D8A4EFEF03F0F1EF03F0F4EF03F0E1
:1007E2008A88F7EF03F08A98F7EF03F03C04D8A465
:1007F200FDEF03F0FFEF03F002EF04F08A8A05EF4A
:1008020004F08A9A05EF04F038503D18D8A40CEF92
:1008120004F00EEF04F034EF04F039503E18D8A47F
:1008220015EF04F017EF04F034EF04F03A503F18DC
:10083200D8A41EEF04F020EF04F034EF04F0365099
:100842003B18D8A427EF04F029EF04F034EF04F0AA
:1008520037503C18D8B430EF04F032EF04F063EFB5
:1008620001F034EF04F038503D18D8B43BEF04F0F7
:100872003DEF04F047EF04F08A88000E066E320E58
:10088200056E5FEC08F08A9847EF04F03DC038F03F
:100892003EC039F03FC03AF03BC036F03CC037F0C2
:1008A2005BEC04F063EF01F063EF01F063EF01F042
:1008B2003CEF00F01BEC08F008C02BF009C02CF054
:1008C2002BC005F02CC006F0076A086A880E096E74
:1008D200130E0A6E000E0B6E000E0C6E61EC07F02A
:1008E20005C027F006C028F007C029F008C02AF08A
:1008F20027C005F028C006F029C007F02AC008F07A
:10090200FF0E096E030E0A6E000E0B6E000E0C6EC9
:1009120040EC06F005C02DF006C02EF01D0E156E3F
:10092200000E166E2DC017F02EC018F0000E1A6EB3
:100932000A0E196EF1EC07F01D0E066E000E076E20
:100942009CEC06F03F04D8A4A9EF04F0ABEF04F04E
:10095200B3EF04F0CF0E066E010E076E9CEC06F0AC
:10096200BBEF04F0C90E066E010E076E9CEC06F09A
:10097200BBEF04F03E04D8A4C1EF04F0C3EF04F0CF
:10098200CBEF04F0D00E066E010E076E9CEC06F063
:10099200D3EF04F0CA0E066E010E076E9CEC06F051
:1009A200D3EF04F03D04D8A4D9EF04F0DBEF04F058
:1009B200E3EF04F0D80E066E010E076E9CEC06F013
:1009C200EBEF04F0DC0E066E010E076E9CEC06F0F7
:1009D200EBEF04F03C04D8A4F1EF04F0F3EF04F0E1
:1009E200FBEF04F0D00E066E010E076E9CEC06F0D3
:1009F20003EF05F0CA0E066E010E076E9CEC06F0C0
:100A020003EF05F03B04D8A409EF05F00BEF05F066
:100A120013EF05F0360E066E010E076E9CEC06F023
:100A22001BEF05F0D40E066E010E076E9CEC06F06D
:100A32001BEF05F012000EC012F00FC013F022EFF0
:100A420005F012C005F013C006F010C007F011C087
:100A520008F0E1EC06F005C012F006C013F00C4AF3
:100A62000D2A12501310D8A439EF05F03BEF05F010
:100A720022EF05F03DEF05F00CC0D9FF0DC0DAFF03
:100A8200000EDF6E0C06D8A00D0648EF05F00EC072
:100A920005F00FC006F010C007F011C008F025ECF9
:100AA20007F00550146E0EC005F00FC006F010C01E
:100AB20007F011C008F0E1EC06F005C00EF006C028
:100AC2000FF0090E146468EF05F06AEF05F06CEFA1
:100AD20005F0070E1426300E14260CC0D9FF0DC0E7
:100AE200DAFF14C0DFFF0C06D8A00D060E500F105F
:100AF200D8A47EEF05F080EF05F048EF05F082EF15
:100B020005F00C4A0D2A86EF05F01200C4EF05F03D
:100B120014C00BF015C00CF016C00DF017C00EF08B
:100B220016C005F017C006F0C6EC07F005C00FF0BE
:100B320006C010F0E4EC05F00B500C10D8A4A4EFA2
:100B420005F0A6EF05F0AEEF05F014C014F015C0E5
:100B520015F0E3EF05F0E3EF05F0010E1424056E46
:100B6200000E1520066E16C0F6FF17C0F7FF08002C
:100B7200F550076E086A9AEC07F005C014F006C03B
:100B820015F0C4EF05F014501510D8B4CBEF05F0F2
:100B9200CDEF05F0DDEF05F014C0D9FF15C0DAFF87
:100BA200DF50D8A4D7EF05F0D9EF05F089EF05F0B3
:100BB200DDEF05F0DDEF05F0000E146E000E156E90
:100BC200E3EF05F012002AEF06F00BC0D9FF0CC0CC
:100BD200DAFFDF50D8B4F0EF05F0F2EF05F008EFDE
:100BE20006F00BC0D9FF0CC0DAFFDF50116E0DC04A
:100BF200F6FF0EC0F7FF0800F5501118D8B404EF45
:100C020006F006EF06F024EF06F008EF06F00DC03E
:100C1200F6FF0EC0F7FF0800F550116E126A111EA2
:100C2200121E114A122A0BC0D9FF0CC0DAFFDF5084
:100C3200136E135011240B6E000E12200C6E3FEF38
:100C420006F03FEF06F00B4A0C2A0D4A0E2A2AEF55
:100C520006F00F06D8A010060F2806E11028D8A427
:100C620035EF06F037EF06F0E6EF05F039EF06F064
:100C7200000E0C6E000E0B6E3FEF06F01200000E1F
:100C82000D6E000E0E6E000E0F6E000E106E0950ED
:100C92000A100B100C10D8B451EF06F053EF06F007
:100CA20093EF06F0010E116E5FEF06F0D890093651
:100CB2000A360B360C36112A5FEF06F00CAE64EFE3
:100CC20006F066EF06F057EF06F06AEF06F06AEFFD
:100CD20006F0D8900D360E360F3610360950055CE8
:100CE2000A5006580B5007580C500858D8A07CEFF1
:100CF20006F07EEF06F089EF06F00950055E0A5015
:100D0200065A0B50075A0C50085A0D8089EF06F00C
:100D1200D8900C320B320A320932112E6AEF06F0E9
:100D220093EF06F00DC005F00EC006F00FC007F0FD
:100D320010C008F01200000E0C6E000E0B6EC0EF19
:100D420006F00B500624086E0C500720096E08C0EE
:100D5200F6FF09C0F7FFF86A000EF76403D0080037
:100D6200F55005D0F6CFD9FFF7CFDAFFDF500A6E84
:100D72000A50DAEC08F00B4A0C2AC0EF06F00B50CE
:100D82000624086E0C500720096E08C0F6FF09C041
:100D9200F7FFF86A000EF76403D00800F55005D09B
:100DA200F6CFD9FFF7CFDAFFDF500009D8A4DCEF86
:100DB20006F0DEEF06F0A2EF06F0E0EF06F012001A
:100DC200000E0A6E000E096E07500810D8B4ECEF40
:100DD20006F0EEEF06F020EF07F0010E0B6EF8EFD3
:100DE20006F0D890073608360B2AF8EF06F008AE60
:100DF200FDEF06F0FFEF06F0F2EF06F003EF07F06B
:100E020003EF07F0D89009360A360750055C085000
:100E12000658D8A00FEF07F011EF07F018EF07F010
:100E22000750055E0850065A098018EF07F0D8905F
:100E3200083207320B2E03EF07F020EF07F009C04C
:100E420005F00AC006F0120007500810D8B42CEFC3
:100E520007F02EEF07F05CEF07F0010E096E38EF96
:100E620007F0D89007360836092A38EF07F008AE9F
:100E72003DEF07F03FEF07F032EF07F043EF07F0E7
:100E820043EF07F00750055C08500658D8A04CEF16
:100E920007F04EEF07F054EF07F00750055E0850D9
:100EA200065A54EF07F0D89008320732092E43EF62
:100EB20007F05CEF07F005C005F006C006F012006F
:100EC200000E0D6E000E0E6E000E0F6E000E106EF6
:100ED2006BEF07F005A070EF07F072EF07F07CEF01
:100EE20007F009500D260A500E220B500F220C500B
:100EF20010227CEF07F0D89009360A360B360C36F2
:100F0200D890083207320632053205500610071013
:100F12000810D8A48FEF07F091EF07F06BEF07F0FE
:100F22000DC005F00EC006F00FC007F010C008F0AB
:100F3200120005C0D9FF06C0DAFF0750DE18D8A498
:100F4200A5EF07F0A7EF07F0AFEF07F005C005F038
:100F520006C006F0C5EF07F0C5EF07F005C0D9FFE0
:100F620006C0DAFF054A062ADF50D8A4BBEF07F015
:100F7200BDEF07F09AEF07F0BFEF07F0000E056E26
:100F8200000E066EC5EF07F0120005C009F006C09C
:100F92000AF0D0EF07F0094A0A2AD0EF07F009C099
:100FA200F6FF0AC0F7FF0800F5500009D8A4DCEFED
:100FB20007F0DEEF07F0CCEF07F0E0EF07F005C037
:100FC20007F006C008F0071E081E074A082A095043
:100FD2000724056E0A500820066EF0EF07F0120093
:100FE20015C01BF016C01CF018BEFCEF07F0FAEF9C
:100FF20007F00AEF08F015C0D9FF16C0DAFF2D0E70
:10100200DF6E154A162A176C181ED8B0182A0AEF76
:1010120008F015C00CF016C00DF017C00EF018C085
:101022000FF019C010F01AC011F01CEC05F01AEF05
:1010320008F01200C280000E066E0A0E056E5FEC0A
:1010420008F0C28225EF08F0C2B22AEF08F02CEFB6
:1010520008F025EF08F02EEF08F0C4500B6E0A6A74
:10106200C3500A240C6E000E0B200D6EC2900CC0F1
:1010720008F00DC009F03EEF08F0120005C00BF0B9
:1010820006C00CF04FEF08F00BC0D9FF0CC0DAFF1E
:1010920007C0DFFF0B4A0C2A4FEF08F00906D8A061
:1010A2000A06092806E10A28D8A45AEF08F05CEFDC
:1010B20008F045EF08F05EEF08F012006BEF08F061
:1010C2000B0E076E620EE82EFED7072EFCD700D05D
:1010D2006BEF08F00506D8A00606052806E10628EB
:1010E200D8A476EF08F078EF08F061EF08F07AEF15
:1010F20008F0120092909282928492869288928C48
:10110200928E93909392938493969398939AC19686
:10111200C184C182C180D388D38AD38C9B8CD59E53
:101122008A908A928A988A9A1200A0EF08F0030E97
:10113200066EE80E056E5FEC08F0A0EF08F00806F8
:10114200D8A00906082806E10928D8A4ABEF08F0C0
:10115200ADEF08F098EF08F0AFEF08F01200080EBC
:10116200F66E120EF76E000EF86E0900F5CF4AF019
:1011720000EE33F0170EEE6AE806FDE14B904B925B
:10118200000EF86E0001F1EF00F0420E056E000E47
:10119200066E000E086E2D0E076E000E0A6E080E09
:1011A200096E3FEC08F0000E416E000E406E8A960A
:1011B2001200056EDDEF08F0ACA2E2EF08F0E4EFFA
:1011C20008F0DDEF08F0E6EF08F005C0ADFF120011
:1011D2009D8AF28CF28EAB8EAB9CAB88AC9CAC98A9
:1011E200AC94AC8AB896B890330EAF6E1200C2843B
:1011F200C286C198C196C08EC08AC098C098C09459
:07120200C092C09012000A27
:020000040020DA
:08000000FFFFFFFFFFFFFFFF00
:020000040030CA
:0E000000FF081F1E0E0981FF03C003E003402E
:00000001FF
