:020000040000FA
:040000003CEF00F0E1
:100008004882D9CF23F0DACF24F0F3CF25F0F4CF0C
:1000180026F08A869EAA13EF00F015EF00F031EF64
:1000280000F00850010D090EF324D96E000EF420DB
:10003800DA6EAECFDFFF0828086E100E0818D8A4B5
:1000480028EF00F02AEF00F02EEF00F00804086E09
:100058002EEF00F09E9A31EF00F08A9626C0F4FF4A
:1000680025C0F3FF24C0DAFF23C0D9FF489211004E
:0400780067EF08F036
:100100000048656C6C6F20576F726C6433310A0065
:1001100048656C6C6F20576F726C64310A004865DB
:100120006C6C6F20576F726C64320A00414C4C5FEC
:1001300045585452415F4F464600414C4C5F53492D
:1001400052454E5F4F464600414C4C5F4558545215
:10015000415F4F4E00414C4C5F534952454E5F4FFB
:100160004E00414C4C5F414C415F4F464600305F72
:1001700045585452415F4F464600305F53495245FF
:100180004E5F4F464600414C4C5F414C415F4F4EE5
:1001900000305F45585452415F4F4E00305F534925
:1001A00052454E5F4F4E00414C4C5F5354415455A5
:1001B0005300305F414C415F4F464600305F414C39
:1001C000415F4F4E00414C4C5F4245455000305F0F
:1001D00053544154555300305F42454550007C4FC5
:1001E00046467C007C4F4E7C0041437C0044437C6F
:1001F00000004CEC08F0BBEC08F0CAEC08F08A8870
:10020000000E286E320E276E30EC08F08A988A862F
:1002100089908A8A000E2B6E010E2A6E81EC08F0FE
:100220008A9689808A9A000E2B6E010E2A6E81ECC6
:1002300008F08A868990000E2B6E010E2A6E81ECE2
:1002400008F08A968980000E2B6E010E2A6E81ECD2
:1002500008F08A968990100E286E010E296E6DECBA
:1002600006F01E0E286E010E296E6DEC06F0010ED2
:10027000286E010E296E6DEC06F03FEF01F0090EBD
:10028000366E000E376EA70E386E010E396E58ECC2
:1002900005F036503710D8A450EF01F053EF01F0BD
:1002A000010E54EF01F0000E436E090E366E000E83
:1002B000376ECE0E386E010E396E58EC05F03650A2
:1002C0003710D8A466EF01F069EF01F0010E6AEF74
:1002D00001F0000E4310E8A070EF01F072EF01F0A2
:1002E00078EF01F09BEC08F031EC04F02FEF03F015
:1002F000090E366E000E376E860E386E010E396EA0
:1003000058EC05F036503710D8A489EF01F08CEF87
:1003100001F0010E8DEF01F0000E436E090E366EF6
:10032000000E376EBC0E386E010E396E58EC05F0BB
:1003300036503710D8A49FEF01F0A2EF01F0010E64
:10034000A3EF01F0000E4310E8A0A9EF01F0ABEF1E
:1003500001F0B2EF01F09BEC08F007500809076EBE
:100360002FEF03F0090E366E000E376E620E386EF8
:10037000010E396E58EC05F036503710D8A4C3EF93
:1003800001F0C6EF01F0010EC7EF01F0000E436E61
:10039000090E366E000E376EB20E386E010E396ED3
:1003A00058EC05F036503710D8A4D9EF01F0DCEF47
:1003B00001F0010EDDEF01F0000E4310E8A0E3EFC5
:1003C00001F0E5EF01F0F4EF01F09BEC08F00750CD
:1003D000EF0B076E0750F70B076E0750FD0B076E0C
:1003E000000E056E2FEF03F0090E366E000E376E0D
:1003F0003A0E386E010E396E58EC05F03650371053
:10040000D8A405EF02F008EF02F0010E09EF02F0A8
:10041000000E436E090E366E000E376E7A0E386E81
:10042000010E396E58EC05F036503710D8A41BEF8A
:1004300002F01EEF02F0010E1FEF02F0000E43105B
:10044000E8A025EF02F027EF02F02EEF02F09BEC80
:1004500008F00750FD0B076E2FEF03F0090E366E04
:10046000000E376E550E386E010E396E58EC05F0E1
:1004700036503710D8A43FEF02F042EF02F0010EE1
:1004800043EF02F0000E436E090E366E000E376E1B
:100490009C0E386E010E396E58EC05F03650371050
:1004A000D8A455EF02F058EF02F0010E59EF02F018
:1004B000000E4310E8A05FEF02F061EF02F068EF7A
:1004C00002F09BEC08F007500209076E2FEF03F0D3
:1004D000090E366E000E376EC50E386E010E396E7F
:1004E00058EC05F036503710D8A479EF02F07CEFC5
:1004F00002F0010E7DEF02F0000E436E090E366E23
:10050000000E376ED70E386E010E396E58EC05F0BE
:1005100036503710D8A48FEF02F092EF02F0010EA0
:1005200093EF02F0000E4310E8A099EF02F09BEF6A
:1005300002F0ADEF02F09BEC08F08A88000E286E06
:10054000FA0E276E30EC08F08A98000E286EFA0E2C
:10055000276E30EC08F02FEF03F0090E366E000E18
:10056000376E480E386E010E396E58EC05F0365075
:100570003710D8A4BEEF02F0C1EF02F0010EC2EFB7
:1005800002F0000E436E090E366E000E376E910EAD
:10059000386E010E396E58EC05F036503710D8A47D
:1005A000D4EF02F0D7EF02F0010ED8EF02F0000E08
:1005B0004310E8A0DEEF02F0E0EF02F0E7EF02F018
:1005C0009BEC08F007500109076E2FEF03F0090EAE
:1005D000366E000E376E2C0E386E010E396E58ECEA
:1005E00005F036503710D8A4F8EF02F0FBEF02F018
:1005F000010EFCEF02F0000E436E090E366E000E87
:10060000376E6E0E386E010E396E58EC05F03650AE
:100610003710D8A40EEF03F011EF03F0010E12EF24
:1006200003F0000E4310E8A018EF03F01AEF03F0F8
:100630002FEF03F09BEC08F00750FE0B076E2FEF37
:1006400003F02FEF03F02FEF03F02FEF03F02FEF66
:1006500003F02FEF03F02FEF03F02FEF03F080B242
:1006600034EF03F038EF03F0436A432A39EF03F025
:10067000436A000E47B0010E4318D8B442EF03F0AE
:1006800044EF03F05EEF03F080B249EF03F04CEF6C
:1006900003F047804DEF03F0479080A252EF03F044
:1006A00054EF03F059EF03F007500409076E5EEFB3
:1006B00003F00750FB0B076E5EEF03F0000E81B4F2
:1006C000010E80BE010EE8B068EF03F06BEF03F09F
:1006D000010E6CEF03F0000E436E446A07B873EF2F
:1006E00003F076EF03F0010E77EF03F0000E4312F4
:1006F000000E441243504410D8B481EF03F083EF4E
:1007000003F0EBEF03F0898007A689EF03F08BEF8E
:1007100003F0ECEF03F007A890EF03F092EF03F083
:10072000C5EF03F0F2A497EF03F099EF03F0ECEFBD
:1007300003F045500618D8A4A0EF03F0A2EF03F091
:10074000BCEF03F007500209076E0750FE0B076E5F
:100750000550D8A4AEEF03F0B0EF03F0ECEF03F0D8
:10076000010E056E550E286E010E296E6DEC06F019
:10077000ECEF03F0ECEF03F00628066EF294ECEFDA
:1007800003F0ECEF03F0ECEF03F0000E066E075001
:100790001009076ED59E000ED66E000ED76ED59C42
:1007A000D59AD596D580D582D584D58EF2948A886F
:1007B000000E286E640E276E30EC08F08A98000E4A
:1007C000286E640E276E30EC08F0ECEF03F0ECEFCF
:1007D00003F0ECEF03F0899007A2F1EF03F0F3EFE1
:1007E00003F0F6EF03F08A88F7EF03F08A9807A08A
:1007F000FCEF03F0FEEF03F001EF04F08A8A04EF50
:1008000004F08A9A04EF04F046500718D8B40BEFAE
:1008100004F00DEF04F03FEF01F046C043F0040E8A
:1008200043160750040B4318D8B419EF04F01BEF1C
:1008300004F025EF04F08A88000E286E320E276E31
:1008400030EC08F08A9825EF04F007C046F031EC50
:1008500004F03FEF01F03FEF01F03FEF01F03CEF1C
:1008600000F0ECEC07F02AC003F02BC004F003C04A
:1008700027F004C028F0296A2A6A880E2B6E130E0E
:100880002C6E000E2D6E000E2E6E32EC07F027C07F
:100890003FF028C040F029C041F02AC042F03FC0DC
:1008A00027F040C028F041C029F042C02AF0FF0ED6
:1008B0002B6E030E2C6E000E2D6E000E2E6E11ECA4
:1008C00006F027C001F028C002F0190E376E000EA6
:1008D000386E01C039F002C03AF0000E3C6E0A0ECC
:1008E0003B6EC2EC07F0190E286E000E296E6DECFF
:1008F00006F007A87EEF04F080EF04F088EF04F024
:10090000E40E286E010E296E6DEC06F090EF04F0F7
:10091000DE0E286E010E296E6DEC06F090EF04F0ED
:1009200007A695EF04F097EF04F09FEF04F0E50EB3
:10093000286E010E296E6DEC06F0A7EF04F0DF0EB5
:10094000286E010E296E6DEC06F0A7EF04F007A4E7
:10095000ACEF04F0AEEF04F0B6EF04F0E90E286E51
:10096000010E296E6DEC06F0BEEF04F0ED0E286E60
:10097000010E296E6DEC06F0BEEF04F007A2C3EF86
:1009800004F0C5EF04F0CDEF04F0E50E286E010E83
:10099000296E6DEC06F0D5EF04F0DF0E286E010E27
:1009A000296E6DEC06F0D5EF04F007A0DAEF04F045
:1009B000DCEF04F0E4EF04F0C20E286E010E296EA5
:1009C0006DEC06F0ECEF04F0B80E286E010E296E07
:1009D0006DEC06F0ECEF04F0120030C034F031C0E2
:1009E00035F0F3EF04F034C027F035C028F032C002
:1009F00029F033C02AF0B2EC06F027C034F028C04A
:100A000035F02E4A2F2A34503510D8A40AEF05F0BD
:100A10000CEF05F0F3EF04F00EEF05F02EC0D9FF58
:100A20002FC0DAFF000EDF6E2E06D8A02F0619EFBA
:100A300005F030C027F031C028F032C029F033C0B3
:100A40002AF0F6EC06F02750366E30C027F031C0A1
:100A500028F032C029F033C02AF0B2EC06F027C0EB
:100A600030F028C031F0090E366439EF05F03BEF65
:100A700005F03DEF05F0070E3626300E36262EC067
:100A8000D9FF2FC0DAFF36C0DFFF2E06D8A02F0611
:100A900030503110D8A44FEF05F051EF05F019EFA9
:100AA00005F053EF05F02E4A2F2A57EF05F01200FC
:100AB00095EF05F036C02DF037C02EF038C02FF07E
:100AC00039C030F038C027F039C028F097EC07F073
:100AD00027C031F028C032F0B5EC05F02D502E10B3
:100AE000D8A475EF05F077EF05F07FEF05F036C07D
:100AF00036F037C037F0B4EF05F0B4EF05F0010E73
:100B00003624276E000E3720286E38C0F6FF39C015
:100B1000F7FF0800F550296E2A6A6BEC07F027C032
:100B200036F028C037F095EF05F036503710D8B4BE
:100B30009CEF05F09EEF05F0AEEF05F036C0D9FF53
:100B400037C0DAFFDF50D8A4A8EF05F0AAEF05F010
:100B50005AEF05F0AEEF05F0AEEF05F0000E366E81
:100B6000000E376EB4EF05F01200FBEF05F02DC05C
:100B7000D9FF2EC0DAFFDF50D8B4C1EF05F0C3EFC4
:100B800005F0D9EF05F02DC0D9FF2EC0DAFFDF50F8
:100B9000336E2FC0F6FF30C0F7FF0800F550331852
:100BA000D8B4D5EF05F0D7EF05F0F5EF05F0D9EFA4
:100BB00005F02FC0F6FF30C0F7FF0800F550336E88
:100BC000346A331E341E334A342A2DC0D9FF2EC056
:100BD000DAFFDF50356E355033242D6E000E342091
:100BE0002E6E10EF06F010EF06F02D4A2E2A2F4A37
:100BF000302AFBEF05F03106D8A03206312806E195
:100C00003228D8A406EF06F008EF06F0B7EF05F09B
:100C10000AEF06F0000E2E6E000E2D6E10EF06F09D
:100C20001200000E2F6E000E306E000E316E000EA0
:100C3000326E2B502C102D102E10D8B422EF06F04F
:100C400024EF06F064EF06F0010E336E30EF06F08D
:100C5000D8902B362C362D362E36332A30EF06F030
:100C60002EAE35EF06F037EF06F028EF06F03BEF3B
:100C700006F03BEF06F0D8902F363036313632365C
:100C80002B50275C2C5028582D5029582E502A586C
:100C9000D8A04DEF06F04FEF06F05AEF06F02B50BC
:100CA000275E2C50285A2D50295A2E502A5A2F8010
:100CB0005AEF06F0D8902E322D322C322B32332EB2
:100CC0003BEF06F064EF06F02FC027F030C028F0AD
:100CD00031C029F032C02AF01200000E2E6E000E34
:100CE0002D6E91EF06F02D5028242A6E2E502920CB
:100CF0002B6E2AC0F6FF2BC0F7FFF86A000EF764D0
:100D000003D00800F55005D0F6CFD9FFF7CFDAFFB2
:100D1000DF502C6E2C50ACEC08F02D4A2E2A91EFAF
:100D200006F02D5028242A6E2E5029202B6E2AC022
:100D3000F6FF2BC0F7FFF86A000EF76403D0080037
:100D4000F55005D0F6CFD9FFF7CFDAFFDF50000915
:100D5000D8A4ADEF06F0AFEF06F073EF06F0B1EFF9
:100D600006F01200000E2C6E000E2B6E29502A1079
:100D7000D8B4BDEF06F0BFEF06F0F1EF06F0010EBC
:100D80002D6EC9EF06F0D89029362A362D2AC9EFE4
:100D900006F02AAECEEF06F0D0EF06F0C3EF06F075
:100DA000D4EF06F0D4EF06F0D8902B362C3629502D
:100DB000275C2A502858D8A0E0EF06F0E2EF06F0B2
:100DC000E9EF06F02950275E2A50285A2B80E9EFD8
:100DD00006F0D8902A3229322D2ED4EF06F0F1EF0A
:100DE00006F02BC027F02CC028F0120029502A1042
:100DF000D8B4FDEF06F0FFEF06F02DEF07F0010E7F
:100E00002B6E09EF07F0D89029362A362B2A09EFE6
:100E100007F02AAE0EEF07F010EF07F003EF07F030
:100E200014EF07F014EF07F02950275C2A502858D8
:100E3000D8A01DEF07F01FEF07F025EF07F02950AE
:100E4000275E2A50285A25EF07F0D8902A322932F7
:100E50002B2E14EF07F02DEF07F027C027F028C046
:100E600028F01200000E2F6E000E306E000E316E54
:100E7000000E326E3CEF07F027A041EF07F043EF82
:100E800007F04DEF07F02B502F262C5030222D501D
:100E900031222E5032224DEF07F0D8902B362C36CF
:100EA0002D362E36D8902A32293228322732275032
:100EB000281029102A10D8A460EF07F062EF07F07D
:100EC0003CEF07F02FC027F030C028F031C029F0E8
:100ED00032C02AF0120027C0D9FF28C0DAFF2950FB
:100EE000DE18D8A476EF07F078EF07F080EF07F070
:100EF00027C027F028C028F096EF07F096EF07F0FC
:100F000027C0D9FF28C0DAFF274A282ADF50D8A4F3
:100F10008CEF07F08EEF07F06BEF07F090EF07F024
:100F2000000E276E000E286E96EF07F0120027C005
:100F30002BF028C02CF0A1EF07F02B4A2C2AA1EFB0
:100F400007F02BC0F6FF2CC0F7FF0800F550000992
:100F5000D8A4ADEF07F0AFEF07F09DEF07F0B1EFCA
:100F600007F027C029F028C02AF0291E2A1E294A86
:100F70002A2A2B502924276E2C502A20286EC1EFB4
:100F800007F0120037C03DF038C03EF03ABECDEF5A
:100F900007F0CBEF07F0DBEF07F037C0D9FF38C021
:100FA000DAFF2D0EDF6E374A382A396C3A1ED8B078
:100FB0003A2ADBEF07F037C02EF038C02FF039C0E7
:100FC00030F03AC031F03BC032F03CC033F0EDECD1
:100FD00004F0EBEF07F01200C280000E286E0A0E3C
:100FE000276E30EC08F0C282F6EF07F0C2B2FBEFDA
:100FF00007F0FDEF07F0F6EF07F0FFEF07F0C45042
:101000002D6E2C6AC3502C242E6E000E2D202F6EB8
:10101000C2902EC02AF02FC02BF00FEF08F0120064
:1010200027C02DF028C02EF020EF08F02DC0D9FFEA
:101030002EC0DAFF29C0DFFF2D4A2E2A20EF08F04C
:101040002B06D8A02C062B2806E12C28D8A42BEFA1
:1010500008F02DEF08F016EF08F02FEF08F012005F
:101060003CEF08F00B0E296E620EE82EFED7292EFB
:10107000FCD700D03CEF08F02706D8A02806272888
:1010800006E12828D8A447EF08F049EF08F032EF2E
:1010900008F04BEF08F012009290928292849286B0
:1010A0009288928C928E9390939293849396939835
:1010B000939AC196C184C182C180D388D38AD38CCC
:1010C0009B8CD59E8A908A928A988A9A1200AC0E3E
:1010D000F66E110EF76E000EF86E0900F5CF45F0B2
:1010E0000900F5CF46F0476A00EE01F0220EEE6AE5
:1010F000E806FDE148904892000EF86E0001F9EF15
:1011000000F08BEF08F0030E286EE80E276E30EC2F
:1011100008F08BEF08F02A06D8A02B062A2806E153
:101120002B28D8A496EF08F098EF08F083EF08F08A
:101130009AEF08F01200090E276E000E286E000EBE
:101140002A6E2D0E296E000E2C6E100E2B6E10ECDA
:1011500008F0000E086E1200276EAFEF08F0ACA288
:10116000B4EF08F0B6EF08F0AFEF08F0B8EF08F012
:1011700027C0ADFF12009D8AF28CF28EAB8EAB9C25
:10118000AB88AC9CAC98AC94AC8AB896B890330E53
:10119000AF6E1200C284C286C198C196C08EC08A4A
:0E11A000C098C098C094C092C09012000A80FF
:020000040020DA
:08000000FFFFFFFFFFFFFFFF00
:020000040030CA
:0E000000FF081F1E0E0981FF03C003E003402E
:00000001FF
