:0400000007EF00F016
:0A0008004B82CCED03F050EF05F041
:10060000004F4646204F4B00414C4C204F4B003191
:10061000204F4B0032204F4B0033204F4B003420F3
:100620004F4B004F464600414C4C002D00310032EC
:10063000003300340000000E936E000E816E79ECE2
:1006400005F019EC05F0000E816E000E196EC80E53
:10065000186E67EC05F00F0E816E000E196EC80E55
:10066000186E67EC05F0000E816E000E196EC80E54
:10067000186E67EC05F00F0E816E2B0E276E000EC4
:10068000286E2D0E296E060E2A6E52EC04F02750AD
:100690002810D8B40AD019EC05F00F0E196E060E0A
:1006A0001A6ED5EC04F00E0EE7D72B0E276E000E57
:1006B000286E2F0E296E060E2A6E52EC04F027507B
:1006C0002810D8B40AD019EC05F0140E196E060ED5
:1006D0001A6ED5EC04F00D0ECFD72B0E276E000E40
:1006E000286E310E296E060E2A6E52EC04F0275049
:1006F0002810D8B40AD019EC05F0190E196E060EA0
:100700001A6ED5EC04F00B0EB7D72B0E276E000E29
:10071000286E330E296E060E2A6E52EC04F0275016
:100720002810D8B40AD019EC05F01E0E196E060E6A
:100730001A6ED5EC04F0070E9FD72B0E276E000E15
:10074000286E270E296E060E2A6E52EC04F02750F2
:100750002810D8B40AD019EC05F0080E196E060E50
:100760001A6ED5EC04F0000E87D72B0E276E000E04
:10077000286E230E296E060E2A6E52EC04F02750C6
:100780002810D8B47AD719EC05F0010E196E060EB0
:100790001A6ED5EC04F06FD70600FACF03F0FBCF4A
:1007A00004F0E9CF05F0EACF06F0E1CF07F0E2CFA1
:1007B00008F0D9CF09F0DACF0AF0F3CF0BF0F4CF7D
:1007C0000CF0F6CF0DF0F7CF0EF0F8CF0FF0F5CF1D
:1007D00010F04BC011F04CC012F04DC013F04EC0E1
:1007E00014F0000E176E000E166EAECF15F0000E50
:1007F000816E0D0E1518D8B42DD00A0E1518D8B468
:1008000029D0000E176E000E166E17BE03D01750BB
:100810001FE11AD0010E1624016E000E1720026E81
:100820002B0E0124D96E000E0220DA6E2B0E162438
:10083000E16E000E1720E26EDFCFE7FF164A172A9F
:1008400017BEE8D7175004E11F0E165CD8A0E2D7F8
:1008500015C04AF00F0E816E14C04EF013C04DF05B
:1008600012C04CF011C04BF010C0F5FF0FC0F8FFE4
:100870000EC0F7FF0DC0F6FF0CC0F4FF0BC0F3FF76
:100880000AC0DAFF09C0D9FF08C0E2FF07C0E1FFD4
:1008900006C0EAFF05C0E9FF04C0FBFF03C0FAFF82
:1008A0004B92110031D027C01EF028C01FF029C084
:1008B00020F02AC021F029C018F02AC019F0FAEC63
:1008C00004F018C022F019C023F094EC04F01E507C
:1008D0001F10D8A405D027C027F028C028F0120088
:1008E000010E2724186E000E2820196E29C0F6FF6D
:1008F0002AC0F7FF0800F5501A6E1B6A35EC05F0A8
:1009000018C027F019C028F027502810D8B407D0F5
:1009100027C0D9FF28C0DAFFDF50D8A4C4D7000E03
:10092000276E000E286E120033D01EC0D9FF1FC0E4
:10093000DAFFDF50D8B40FD01EC0D9FF1FC0DAFFD6
:10094000DF50246E20C0F6FF21C0F7FF0800F550ED
:100950002418D8B419D020C0F6FF21C0F7FF080032
:10096000F550246E256A241E251E244A252A1EC001
:10097000D9FF1FC0DAFFDF50266E265024241E6EDA
:10098000000E25201F6E12001E4A1F2A204A212A0F
:100990002206D8A023062228C8E12328D8A4C5D738
:1009A000000E1F6E000E1E6E1200000E1E6E000E58
:1009B0001D6E10D01D5019241B6E1E501A201C6E67
:1009C0001BC0F6FF1CC0F7FF0800F5509AEC05F0BD
:1009D0001D4A1E2A1D5019241B6E1E501A201C6E03
:1009E0001BC0F6FF1CC0F7FF0800F5500009D8B483
:1009F0001200E0D718C01CF019C01DF002D01C4A2C
:100A00001D2A1CC0F6FF1DC0F7FF0800F5500009A5
:100A1000D8A4F5D718C01AF019C01BF01A1E1B1E57
:100A20001A4A1B2A1C501A24186E1D501B20196EBE
:100A30001200000E196E000E186E000E196E000ED8
:100A4000186E19BE06D019500FE1200E185CD8B0F0
:100A500012002B0E1824D96E000E1920DA6E2B0E00
:100A6000DF6E184A192AEDD7120018C0D9FF19C035
:100A7000DAFF1A50DE18D8A405D018C018F019C033
:100A800019F0120018C0D9FF19C0DAFF184A192A44
:100A9000DF50D8A4EAD7000E186E000E196E1200AF
:100AA000140EF66E0B0EF76E000EF86E00EE2BF0C5
:100AB00010EE20F00900F5CFEEFFE550E150FAE12D
:100AC0004B904B92000EF86E00011BEF03F008D024
:100AD0000B0E1A6E620EE82EFED71A2EFCD700D02F
:100AE0001806D8A019061828F3E11928D8B412005E
:100AF000EFD79D8AF28CF28E948C948EAB8EAB9C49
:100B0000AB88AC9CAC98AC94AC8AB896B890190EF3
:100B1000AF6E12002D2D2D2D2D2D2D2D2D2D2D2D8A
:100B20002D2D2D2D2D2D2D2D2D2D2D2D2D2D2D2DF5
:100B30002D2D2D2D186EACA2FED718C0ADFF1200C2
:020000040020DA
:08000000FFFFFFFFFFFFFFFF00
:020000040030CA
:0E000000FF061F1EFF0185FF0FC00FE00F401F
:00000001FF
